{
  "_format": "hh-sol-artifact-1",
  "contractName": "DocumentRegistry",
  "sourceName": "contracts/DocumentRegistry.sol",
  "abi": [
    {
      "inputs": [],
      "stateMutability": "nonpayable",
      "type": "constructor"
    },
    {
      "inputs": [
        {
          "internalType": "address",
          "name": "owner",
          "type": "address"
        }
      ],
      "name": "OwnableInvalidOwner",
      "type": "error"
    },
    {
      "inputs": [
        {
          "internalType": "address",
          "name": "account",
          "type": "address"
        }
      ],
      "name": "OwnableUnauthorizedAccount",
      "type": "error"
    },
    {
      "anonymous": false,
      "inputs": [
        {
          "indexed": true,
          "internalType": "bytes32",
          "name": "docHash",
          "type": "bytes32"
        },
        {
          "indexed": false,
          "internalType": "string",
          "name": "landlordName",
          "type": "string"
        },
        {
          "indexed": false,
          "internalType": "string",
          "name": "unitInfo",
          "type": "string"
        }
      ],
      "name": "DocumentVerified",
      "type": "event"
    },
    {
      "anonymous": false,
      "inputs": [
        {
          "indexed": true,
          "internalType": "address",
          "name": "previousOwner",
          "type": "address"
        },
        {
          "indexed": true,
          "internalType": "address",
          "name": "newOwner",
          "type": "address"
        }
      ],
      "name": "OwnershipTransferred",
      "type": "event"
    },
    {
      "inputs": [
        {
          "internalType": "bytes32",
          "name": "_docHash",
          "type": "bytes32"
        },
        {
          "internalType": "string",
          "name": "_landlordName",
          "type": "string"
        },
        {
          "internalType": "string",
          "name": "_unitInfo",
          "type": "string"
        },
        {
          "internalType": "string",
          "name": "_tenantName",
          "type": "string"
        },
        {
          "internalType": "string",
          "name": "_from",
          "type": "string"
        },
        {
          "internalType": "string",
          "name": "_to",
          "type": "string"
        }
      ],
      "name": "addDocument",
      "outputs": [],
      "stateMutability": "nonpayable",
      "type": "function"
    },
    {
      "inputs": [
        {
          "internalType": "bytes32",
          "name": "",
          "type": "bytes32"
        }
      ],
      "name": "documents",
      "outputs": [
        {
          "internalType": "bytes32",
          "name": "docHash",
          "type": "bytes32"
        },
        {
          "internalType": "string",
          "name": "landlordName",
          "type": "string"
        },
        {
          "internalType": "string",
          "name": "unitInfo",
          "type": "string"
        },
        {
          "internalType": "string",
          "name": "tenantName",
          "type": "string"
        },
        {
          "internalType": "string",
          "name": "from",
          "type": "string"
        },
        {
          "internalType": "string",
          "name": "to",
          "type": "string"
        },
        {
          "internalType": "uint256",
          "name": "timestamp",
          "type": "uint256"
        },
        {
          "internalType": "bool",
          "name": "isVerified",
          "type": "bool"
        }
      ],
      "stateMutability": "view",
      "type": "function"
    },
    {
      "inputs": [
        {
          "internalType": "bytes32",
          "name": "_docHash",
          "type": "bytes32"
        }
      ],
      "name": "getDocument",
      "outputs": [
        {
          "internalType": "bool",
          "name": "",
          "type": "bool"
        },
        {
          "internalType": "string",
          "name": "",
          "type": "string"
        },
        {
          "internalType": "string",
          "name": "",
          "type": "string"
        },
        {
          "internalType": "string",
          "name": "",
          "type": "string"
        },
        {
          "internalType": "string",
          "name": "",
          "type": "string"
        },
        {
          "internalType": "string",
          "name": "",
          "type": "string"
        },
        {
          "internalType": "uint256",
          "name": "",
          "type": "uint256"
        }
      ],
      "stateMutability": "view",
      "type": "function"
    },
    {
      "inputs": [],
      "name": "owner",
      "outputs": [
        {
          "internalType": "address",
          "name": "",
          "type": "address"
        }
      ],
      "stateMutability": "view",
      "type": "function"
    },
    {
      "inputs": [],
      "name": "renounceOwnership",
      "outputs": [],
      "stateMutability": "nonpayable",
      "type": "function"
    },
    {
      "inputs": [
        {
          "internalType": "address",
          "name": "newOwner",
          "type": "address"
        }
      ],
      "name": "transferOwnership",
      "outputs": [],
      "stateMutability": "nonpayable",
      "type": "function"
    }
  ],
  "bytecode": "0x608060405234801561001057600080fd5b5033600073ffffffffffffffffffffffffffffffffffffffff168173ffffffffffffffffffffffffffffffffffffffff16036100845760006040517f1e4fbdf700000000000000000000000000000000000000000000000000000000815260040161007b919061019e565b60405180910390fd5b6100938161009960201b60201c565b506101b9565b60008060009054906101000a900473ffffffffffffffffffffffffffffffffffffffff169050816000806101000a81548173ffffffffffffffffffffffffffffffffffffffff021916908373ffffffffffffffffffffffffffffffffffffffff1602179055508173ffffffffffffffffffffffffffffffffffffffff168173ffffffffffffffffffffffffffffffffffffffff167f8be0079c531659141344cd1fd0a4f28419497f9722a3daafe3b4186f6b6457e060405160405180910390a35050565b600073ffffffffffffffffffffffffffffffffffffffff82169050919050565b60006101888261015d565b9050919050565b6101988161017d565b82525050565b60006020820190506101b3600083018461018f565b92915050565b61154e806101c86000396000f3fe608060405234801561001057600080fd5b50600436106100625760003560e01c80632b2805db146100675780634fe94f591461009e578063715018a6146100ba5780638da5cb5b146100c4578063b10d6b41146100e2578063f2fde38b14610118575b600080fd5b610081600480360381019061007c9190610caa565b610134565b604051610095989796959493929190610daa565b60405180910390f35b6100b860048036038101906100b39190610eb0565b610431565b005b6100c2610731565b005b6100cc610745565b6040516100d99190611022565b60405180910390f35b6100fc60048036038101906100f79190610caa565b61076e565b60405161010f979695949392919061103d565b60405180910390f35b610132600480360381019061012d91906110fb565b610a91565b005b600160205280600052604060002060009150905080600001549080600101805461015d90611157565b80601f016020809104026020016040519081016040528092919081815260200182805461018990611157565b80156101d65780601f106101ab576101008083540402835291602001916101d6565b820191906000526020600020905b8154815290600101906020018083116101b957829003601f168201915b5050505050908060020180546101eb90611157565b80601f016020809104026020016040519081016040528092919081815260200182805461021790611157565b80156102645780601f1061023957610100808354040283529160200191610264565b820191906000526020600020905b81548152906001019060200180831161024757829003601f168201915b50505050509080600301805461027990611157565b80601f01602080910402602001604051908101604052809291908181526020018280546102a590611157565b80156102f25780601f106102c7576101008083540402835291602001916102f2565b820191906000526020600020905b8154815290600101906020018083116102d557829003601f168201915b50505050509080600401805461030790611157565b80601f016020809104026020016040519081016040528092919081815260200182805461033390611157565b80156103805780601f1061035557610100808354040283529160200191610380565b820191906000526020600020905b81548152906001019060200180831161036357829003601f168201915b50505050509080600501805461039590611157565b80601f01602080910402602001604051908101604052809291908181526020018280546103c190611157565b801561040e5780601f106103e35761010080835404028352916020019161040e565b820191906000526020600020905b8154815290600101906020018083116103f157829003601f168201915b5050505050908060060154908060070160009054906101000a900460ff16905088565b610439610b17565b600160008c815260200190815260200160002060070160009054906101000a900460ff161561049d576040517f08c379a0000000000000000000000000000000000000000000000000000000008152600401610494906111d4565b60405180910390fd5b6040518061010001604052808c81526020018b8b8080601f016020809104026020016040519081016040528093929190818152602001838380828437600081840152601f19601f82011690508083019250505050505050815260200189898080601f016020809104026020016040519081016040528093929190818152602001838380828437600081840152601f19601f82011690508083019250505050505050815260200187878080601f016020809104026020016040519081016040528093929190818152602001838380828437600081840152601f19601f82011690508083019250505050505050815260200185858080601f016020809104026020016040519081016040528093929190818152602001838380828437600081840152601f19601f82011690508083019250505050505050815260200183838080601f016020809104026020016040519081016040528093929190818152602001838380828437600081840152601f19601f82011690508083019250505050505050815260200142815260200160011515815250600160008d815260200190815260200160002060008201518160000155602082015181600101908161066091906113cf565b50604082015181600201908161067691906113cf565b50606082015181600301908161068c91906113cf565b5060808201518160040190816106a291906113cf565b5060a08201518160050190816106b891906113cf565b5060c0820151816006015560e08201518160070160006101000a81548160ff0219169083151502179055509050508a7f56233cfcf8a7adc73b7868f384c31831b4b6def192ec6ac2c83db4b2a7fd055f8b8b8b8b60405161071c94939291906114dd565b60405180910390a25050505050505050505050565b610739610b17565b6107436000610b9e565b565b60008060009054906101000a900473ffffffffffffffffffffffffffffffffffffffff16905090565b60006060806060806060600080600160008a815260200190815260200160002090508060070160009054906101000a900460ff16816001018260020183600301846004018560050186600601548580546107c790611157565b80601f01602080910402602001604051908101604052809291908181526020018280546107f390611157565b80156108405780601f1061081557610100808354040283529160200191610840565b820191906000526020600020905b81548152906001019060200180831161082357829003601f168201915b5050505050955084805461085390611157565b80601f016020809104026020016040519081016040528092919081815260200182805461087f90611157565b80156108cc5780601f106108a1576101008083540402835291602001916108cc565b820191906000526020600020905b8154815290600101906020018083116108af57829003601f168201915b505050505094508380546108df90611157565b80601f016020809104026020016040519081016040528092919081815260200182805461090b90611157565b80156109585780601f1061092d57610100808354040283529160200191610958565b820191906000526020600020905b81548152906001019060200180831161093b57829003601f168201915b5050505050935082805461096b90611157565b80601f016020809104026020016040519081016040528092919081815260200182805461099790611157565b80156109e45780601f106109b9576101008083540402835291602001916109e4565b820191906000526020600020905b8154815290600101906020018083116109c757829003601f168201915b505050505092508180546109f790611157565b80601f0160208091040260200160405190810160405280929190818152602001828054610a2390611157565b8015610a705780601f10610a4557610100808354040283529160200191610a70565b820191906000526020600020905b815481529060010190602001808311610a5357829003601f168201915b50505050509150975097509750975097509750975050919395979092949650565b610a99610b17565b600073ffffffffffffffffffffffffffffffffffffffff168173ffffffffffffffffffffffffffffffffffffffff1603610b0b5760006040517f1e4fbdf7000000000000000000000000000000000000000000000000000000008152600401610b029190611022565b60405180910390fd5b610b1481610b9e565b50565b610b1f610c62565b73ffffffffffffffffffffffffffffffffffffffff16610b3d610745565b73ffffffffffffffffffffffffffffffffffffffff1614610b9c57610b60610c62565b6040517f118cdaa7000000000000000000000000000000000000000000000000000000008152600401610b939190611022565b60405180910390fd5b565b60008060009054906101000a900473ffffffffffffffffffffffffffffffffffffffff169050816000806101000a81548173ffffffffffffffffffffffffffffffffffffffff021916908373ffffffffffffffffffffffffffffffffffffffff1602179055508173ffffffffffffffffffffffffffffffffffffffff168173ffffffffffffffffffffffffffffffffffffffff167f8be0079c531659141344cd1fd0a4f28419497f9722a3daafe3b4186f6b6457e060405160405180910390a35050565b600033905090565b600080fd5b600080fd5b6000819050919050565b610c8781610c74565b8114610c9257600080fd5b50565b600081359050610ca481610c7e565b92915050565b600060208284031215610cc057610cbf610c6a565b5b6000610cce84828501610c95565b91505092915050565b610ce081610c74565b82525050565b600081519050919050565b600082825260208201905092915050565b60005b83811015610d20578082015181840152602081019050610d05565b60008484015250505050565b6000601f19601f8301169050919050565b6000610d4882610ce6565b610d528185610cf1565b9350610d62818560208601610d02565b610d6b81610d2c565b840191505092915050565b6000819050919050565b610d8981610d76565b82525050565b60008115159050919050565b610da481610d8f565b82525050565b600061010082019050610dc0600083018b610cd7565b8181036020830152610dd2818a610d3d565b90508181036040830152610de68189610d3d565b90508181036060830152610dfa8188610d3d565b90508181036080830152610e0e8187610d3d565b905081810360a0830152610e228186610d3d565b9050610e3160c0830185610d80565b610e3e60e0830184610d9b565b9998505050505050505050565b600080fd5b600080fd5b600080fd5b60008083601f840112610e7057610e6f610e4b565b5b8235905067ffffffffffffffff811115610e8d57610e8c610e50565b5b602083019150836001820283011115610ea957610ea8610e55565b5b9250929050565b600080600080600080600080600080600060c08c8e031215610ed557610ed4610c6a565b5b6000610ee38e828f01610c95565b9b505060208c013567ffffffffffffffff811115610f0457610f03610c6f565b5b610f108e828f01610e5a565b9a509a505060408c013567ffffffffffffffff811115610f3357610f32610c6f565b5b610f3f8e828f01610e5a565b985098505060608c013567ffffffffffffffff811115610f6257610f61610c6f565b5b610f6e8e828f01610e5a565b965096505060808c013567ffffffffffffffff811115610f9157610f90610c6f565b5b610f9d8e828f01610e5a565b945094505060a08c013567ffffffffffffffff811115610fc057610fbf610c6f565b5b610fcc8e828f01610e5a565b92509250509295989b509295989b9093969950565b600073ffffffffffffffffffffffffffffffffffffffff82169050919050565b600061100c82610fe1565b9050919050565b61101c81611001565b82525050565b60006020820190506110376000830184611013565b92915050565b600060e082019050611052600083018a610d9b565b81810360208301526110648189610d3d565b905081810360408301526110788188610d3d565b9050818103606083015261108c8187610d3d565b905081810360808301526110a08186610d3d565b905081810360a08301526110b48185610d3d565b90506110c360c0830184610d80565b98975050505050505050565b6110d881611001565b81146110e357600080fd5b50565b6000813590506110f5816110cf565b92915050565b60006020828403121561111157611110610c6a565b5b600061111f848285016110e6565b91505092915050565b7f4e487b7100000000000000000000000000000000000000000000000000000000600052602260045260246000fd5b6000600282049050600182168061116f57607f821691505b60208210810361118257611181611128565b5b50919050565b7f446f63756d656e7420616c726561647920766572696669656400000000000000600082015250565b60006111be601983610cf1565b91506111c982611188565b602082019050919050565b600060208201905081810360008301526111ed816111b1565b9050919050565b7f4e487b7100000000000000000000000000000000000000000000000000000000600052604160045260246000fd5b60008190508160005260206000209050919050565b60006020601f8301049050919050565b600082821b905092915050565b6000600883026112857fffffffffffffffffffffffffffffffffffffffffffffffffffffffffffffffff82611248565b61128f8683611248565b95508019841693508086168417925050509392505050565b6000819050919050565b60006112cc6112c76112c284610d76565b6112a7565b610d76565b9050919050565b6000819050919050565b6112e6836112b1565b6112fa6112f2826112d3565b848454611255565b825550505050565b600090565b61130f611302565b61131a8184846112dd565b505050565b5b8181101561133e57611333600082611307565b600181019050611320565b5050565b601f8211156113835761135481611223565b61135d84611238565b8101602085101561136c578190505b61138061137885611238565b83018261131f565b50505b505050565b600082821c905092915050565b60006113a660001984600802611388565b1980831691505092915050565b60006113bf8383611395565b9150826002028217905092915050565b6113d882610ce6565b67ffffffffffffffff8111156113f1576113f06111f4565b5b6113fb8254611157565b611406828285611342565b600060209050601f8311600181146114395760008415611427578287015190505b61143185826113b3565b865550611499565b601f19841661144786611223565b60005b8281101561146f5784890151825560018201915060208501945060208101905061144a565b8683101561148c5784890151611488601f891682611395565b8355505b6001600288020188555050505b505050505050565b82818337600083830152505050565b60006114bc8385610cf1565b93506114c98385846114a1565b6114d283610d2c565b840190509392505050565b600060408201905081810360008301526114f88186886114b0565b9050818103602083015261150d8184866114b0565b90509594505050505056fea2646970667358221220dc086c92ef5be232edbce9a490ea2d8eb207bf64b6f056e8990792c43703273164736f6c634300081c0033",
  "linkReferences": {},
  "deployedLinkReferences": {}
}