{"contracts/DocumentRegistry.sol":{"DocumentRegistry":{"abi":[{"inputs":[],"stateMutability":"nonpayable","type":"constructor"},{"inputs":[{"internalType":"address","name":"owner","type":"address"}],"name":"OwnableInvalidOwner","type":"error"},{"inputs":[{"internalType":"address","name":"account","type":"address"}],"name":"OwnableUnauthorizedAccount","type":"error"},{"anonymous":false,"inputs":[{"indexed":true,"internalType":"bytes32","name":"docHash","type":"bytes32"},{"indexed":false,"internalType":"string","name":"landlordName","type":"string"},{"indexed":false,"internalType":"string","name":"unitInfo","type":"string"}],"name":"DocumentVerified","type":"event"},{"anonymous":false,"inputs":[{"indexed":true,"internalType":"address","name":"previousOwner","type":"address"},{"indexed":true,"internalType":"address","name":"newOwner","type":"address"}],"name":"OwnershipTransferred","type":"event"},{"inputs":[{"internalType":"bytes32","name":"_docHash","type":"bytes32"},{"internalType":"string","name":"_landlordName","type":"string"},{"internalType":"string","name":"_unitInfo","type":"string"},{"internalType":"string","name":"_tenantName","type":"string"},{"internalType":"string","name":"_from","type":"string"},{"internalType":"string","name":"_to","type":"string"}],"name":"addDocument","outputs":[],"stateMutability":"nonpayable","type":"function"},{"inputs":[{"internalType":"bytes32","name":"","type":"bytes32"}],"name":"documents","outputs":[{"internalType":"bytes32","name":"docHash","type":"bytes32"},{"internalType":"string","name":"landlordName","type":"string"},{"internalType":"string","name":"unitInfo","type":"string"},{"internalType":"string","name":"tenantName","type":"string"},{"internalType":"string","name":"from","type":"string"},{"internalType":"string","name":"to","type":"string"},{"internalType":"uint256","name":"timestamp","type":"uint256"},{"internalType":"bool","name":"isVerified","type":"bool"}],"stateMutability":"view","type":"function"},{"inputs":[{"internalType":"bytes32","name":"_docHash","type":"bytes32"}],"name":"getDocument","outputs":[{"internalType":"bool","name":"","type":"bool"},{"internalType":"string","name":"","type":"string"},{"internalType":"string","name":"","type":"string"},{"internalType":"string","name":"","type":"string"},{"internalType":"string","name":"","type":"string"},{"internalType":"string","name":"","type":"string"},{"internalType":"uint256","name":"","type":"uint256"}],"stateMutability":"view","type":"function"},{"inputs":[],"name":"owner","outputs":[{"internalType":"address","name":"","type":"address"}],"stateMutability":"view","type":"function"},{"inputs":[],"name":"renounceOwnership","outputs":[],"stateMutability":"nonpayable","type":"function"},{"inputs":[{"internalType":"address","name":"newOwner","type":"address"}],"name":"transferOwnership","outputs":[],"stateMutability":"nonpayable","type":"function"}],"evm":{"bytecode":{"linkReferences":{},"object":"608060405234801561001057600080fd5b5033600073ffffffffffffffffffffffffffffffffffffffff168173ffffffffffffffffffffffffffffffffffffffff16036100845760006040517f1e4fbdf700000000000000000000000000000000000000000000000000000000815260040161007b919061019e565b60405180910390fd5b6100938161009960201b60201c565b506101b9565b60008060009054906101000a900473ffffffffffffffffffffffffffffffffffffffff169050816000806101000a81548173ffffffffffffffffffffffffffffffffffffffff021916908373ffffffffffffffffffffffffffffffffffffffff1602179055508173ffffffffffffffffffffffffffffffffffffffff168173ffffffffffffffffffffffffffffffffffffffff167f8be0079c531659141344cd1fd0a4f28419497f9722a3daafe3b4186f6b6457e060405160405180910390a35050565b600073ffffffffffffffffffffffffffffffffffffffff82169050919050565b60006101888261015d565b9050919050565b6101988161017d565b82525050565b60006020820190506101b3600083018461018f565b92915050565b61154e806101c86000396000f3fe608060405234801561001057600080fd5b50600436106100625760003560e01c80632b2805db146100675780634fe94f591461009e578063715018a6146100ba5780638da5cb5b146100c4578063b10d6b41146100e2578063f2fde38b14610118575b600080fd5b610081600480360381019061007c9190610caa565b610134565b604051610095989796959493929190610daa565b60405180910390f35b6100b860048036038101906100b39190610eb0565b610431565b005b6100c2610731565b005b6100cc610745565b6040516100d99190611022565b60405180910390f35b6100fc60048036038101906100f79190610caa565b61076e565b60405161010f979695949392919061103d565b60405180910390f35b610132600480360381019061012d91906110fb565b610a91565b005b600160205280600052604060002060009150905080600001549080600101805461015d90611157565b80601f016020809104026020016040519081016040528092919081815260200182805461018990611157565b80156101d65780601f106101ab576101008083540402835291602001916101d6565b820191906000526020600020905b8154815290600101906020018083116101b957829003601f168201915b5050505050908060020180546101eb90611157565b80601f016020809104026020016040519081016040528092919081815260200182805461021790611157565b80156102645780601f1061023957610100808354040283529160200191610264565b820191906000526020600020905b81548152906001019060200180831161024757829003601f168201915b50505050509080600301805461027990611157565b80601f01602080910402602001604051908101604052809291908181526020018280546102a590611157565b80156102f25780601f106102c7576101008083540402835291602001916102f2565b820191906000526020600020905b8154815290600101906020018083116102d557829003601f168201915b50505050509080600401805461030790611157565b80601f016020809104026020016040519081016040528092919081815260200182805461033390611157565b80156103805780601f1061035557610100808354040283529160200191610380565b820191906000526020600020905b81548152906001019060200180831161036357829003601f168201915b50505050509080600501805461039590611157565b80601f01602080910402602001604051908101604052809291908181526020018280546103c190611157565b801561040e5780601f106103e35761010080835404028352916020019161040e565b820191906000526020600020905b8154815290600101906020018083116103f157829003601f168201915b5050505050908060060154908060070160009054906101000a900460ff16905088565b610439610b17565b600160008c815260200190815260200160002060070160009054906101000a900460ff161561049d576040517f08c379a0000000000000000000000000000000000000000000000000000000008152600401610494906111d4565b60405180910390fd5b6040518061010001604052808c81526020018b8b8080601f016020809104026020016040519081016040528093929190818152602001838380828437600081840152601f19601f82011690508083019250505050505050815260200189898080601f016020809104026020016040519081016040528093929190818152602001838380828437600081840152601f19601f82011690508083019250505050505050815260200187878080601f016020809104026020016040519081016040528093929190818152602001838380828437600081840152601f19601f82011690508083019250505050505050815260200185858080601f016020809104026020016040519081016040528093929190818152602001838380828437600081840152601f19601f82011690508083019250505050505050815260200183838080601f016020809104026020016040519081016040528093929190818152602001838380828437600081840152601f19601f82011690508083019250505050505050815260200142815260200160011515815250600160008d815260200190815260200160002060008201518160000155602082015181600101908161066091906113cf565b50604082015181600201908161067691906113cf565b50606082015181600301908161068c91906113cf565b5060808201518160040190816106a291906113cf565b5060a08201518160050190816106b891906113cf565b5060c0820151816006015560e08201518160070160006101000a81548160ff0219169083151502179055509050508a7f56233cfcf8a7adc73b7868f384c31831b4b6def192ec6ac2c83db4b2a7fd055f8b8b8b8b60405161071c94939291906114dd565b60405180910390a25050505050505050505050565b610739610b17565b6107436000610b9e565b565b60008060009054906101000a900473ffffffffffffffffffffffffffffffffffffffff16905090565b60006060806060806060600080600160008a815260200190815260200160002090508060070160009054906101000a900460ff16816001018260020183600301846004018560050186600601548580546107c790611157565b80601f01602080910402602001604051908101604052809291908181526020018280546107f390611157565b80156108405780601f1061081557610100808354040283529160200191610840565b820191906000526020600020905b81548152906001019060200180831161082357829003601f168201915b5050505050955084805461085390611157565b80601f016020809104026020016040519081016040528092919081815260200182805461087f90611157565b80156108cc5780601f106108a1576101008083540402835291602001916108cc565b820191906000526020600020905b8154815290600101906020018083116108af57829003601f168201915b505050505094508380546108df90611157565b80601f016020809104026020016040519081016040528092919081815260200182805461090b90611157565b80156109585780601f1061092d57610100808354040283529160200191610958565b820191906000526020600020905b81548152906001019060200180831161093b57829003601f168201915b5050505050935082805461096b90611157565b80601f016020809104026020016040519081016040528092919081815260200182805461099790611157565b80156109e45780601f106109b9576101008083540402835291602001916109e4565b820191906000526020600020905b8154815290600101906020018083116109c757829003601f168201915b505050505092508180546109f790611157565b80601f0160208091040260200160405190810160405280929190818152602001828054610a2390611157565b8015610a705780601f10610a4557610100808354040283529160200191610a70565b820191906000526020600020905b815481529060010190602001808311610a5357829003601f168201915b50505050509150975097509750975097509750975050919395979092949650565b610a99610b17565b600073ffffffffffffffffffffffffffffffffffffffff168173ffffffffffffffffffffffffffffffffffffffff1603610b0b5760006040517f1e4fbdf7000000000000000000000000000000000000000000000000000000008152600401610b029190611022565b60405180910390fd5b610b1481610b9e565b50565b610b1f610c62565b73ffffffffffffffffffffffffffffffffffffffff16610b3d610745565b73ffffffffffffffffffffffffffffffffffffffff1614610b9c57610b60610c62565b6040517f118cdaa7000000000000000000000000000000000000000000000000000000008152600401610b939190611022565b60405180910390fd5b565b60008060009054906101000a900473ffffffffffffffffffffffffffffffffffffffff169050816000806101000a81548173ffffffffffffffffffffffffffffffffffffffff021916908373ffffffffffffffffffffffffffffffffffffffff1602179055508173ffffffffffffffffffffffffffffffffffffffff168173ffffffffffffffffffffffffffffffffffffffff167f8be0079c531659141344cd1fd0a4f28419497f9722a3daafe3b4186f6b6457e060405160405180910390a35050565b600033905090565b600080fd5b600080fd5b6000819050919050565b610c8781610c74565b8114610c9257600080fd5b50565b600081359050610ca481610c7e565b92915050565b600060208284031215610cc057610cbf610c6a565b5b6000610cce84828501610c95565b91505092915050565b610ce081610c74565b82525050565b600081519050919050565b600082825260208201905092915050565b60005b83811015610d20578082015181840152602081019050610d05565b60008484015250505050565b6000601f19601f8301169050919050565b6000610d4882610ce6565b610d528185610cf1565b9350610d62818560208601610d02565b610d6b81610d2c565b840191505092915050565b6000819050919050565b610d8981610d76565b82525050565b60008115159050919050565b610da481610d8f565b82525050565b600061010082019050610dc0600083018b610cd7565b8181036020830152610dd2818a610d3d565b90508181036040830152610de68189610d3d565b90508181036060830152610dfa8188610d3d565b90508181036080830152610e0e8187610d3d565b905081810360a0830152610e228186610d3d565b9050610e3160c0830185610d80565b610e3e60e0830184610d9b565b9998505050505050505050565b600080fd5b600080fd5b600080fd5b60008083601f840112610e7057610e6f610e4b565b5b8235905067ffffffffffffffff811115610e8d57610e8c610e50565b5b602083019150836001820283011115610ea957610ea8610e55565b5b9250929050565b600080600080600080600080600080600060c08c8e031215610ed557610ed4610c6a565b5b6000610ee38e828f01610c95565b9b505060208c013567ffffffffffffffff811115610f0457610f03610c6f565b5b610f108e828f01610e5a565b9a509a505060408c013567ffffffffffffffff811115610f3357610f32610c6f565b5b610f3f8e828f01610e5a565b985098505060608c013567ffffffffffffffff811115610f6257610f61610c6f565b5b610f6e8e828f01610e5a565b965096505060808c013567ffffffffffffffff811115610f9157610f90610c6f565b5b610f9d8e828f01610e5a565b945094505060a08c013567ffffffffffffffff811115610fc057610fbf610c6f565b5b610fcc8e828f01610e5a565b92509250509295989b509295989b9093969950565b600073ffffffffffffffffffffffffffffffffffffffff82169050919050565b600061100c82610fe1565b9050919050565b61101c81611001565b82525050565b60006020820190506110376000830184611013565b92915050565b600060e082019050611052600083018a610d9b565b81810360208301526110648189610d3d565b905081810360408301526110788188610d3d565b9050818103606083015261108c8187610d3d565b905081810360808301526110a08186610d3d565b905081810360a08301526110b48185610d3d565b90506110c360c0830184610d80565b98975050505050505050565b6110d881611001565b81146110e357600080fd5b50565b6000813590506110f5816110cf565b92915050565b60006020828403121561111157611110610c6a565b5b600061111f848285016110e6565b91505092915050565b7f4e487b7100000000000000000000000000000000000000000000000000000000600052602260045260246000fd5b6000600282049050600182168061116f57607f821691505b60208210810361118257611181611128565b5b50919050565b7f446f63756d656e7420616c726561647920766572696669656400000000000000600082015250565b60006111be601983610cf1565b91506111c982611188565b602082019050919050565b600060208201905081810360008301526111ed816111b1565b9050919050565b7f4e487b7100000000000000000000000000000000000000000000000000000000600052604160045260246000fd5b60008190508160005260206000209050919050565b60006020601f8301049050919050565b600082821b905092915050565b6000600883026112857fffffffffffffffffffffffffffffffffffffffffffffffffffffffffffffffff82611248565b61128f8683611248565b95508019841693508086168417925050509392505050565b6000819050919050565b60006112cc6112c76112c284610d76565b6112a7565b610d76565b9050919050565b6000819050919050565b6112e6836112b1565b6112fa6112f2826112d3565b848454611255565b825550505050565b600090565b61130f611302565b61131a8184846112dd565b505050565b5b8181101561133e57611333600082611307565b600181019050611320565b5050565b601f8211156113835761135481611223565b61135d84611238565b8101602085101561136c578190505b61138061137885611238565b83018261131f565b50505b505050565b600082821c905092915050565b60006113a660001984600802611388565b1980831691505092915050565b60006113bf8383611395565b9150826002028217905092915050565b6113d882610ce6565b67ffffffffffffffff8111156113f1576113f06111f4565b5b6113fb8254611157565b611406828285611342565b600060209050601f8311600181146114395760008415611427578287015190505b61143185826113b3565b865550611499565b601f19841661144786611223565b60005b8281101561146f5784890151825560018201915060208501945060208101905061144a565b8683101561148c5784890151611488601f891682611395565b8355505b6001600288020188555050505b505050505050565b82818337600083830152505050565b60006114bc8385610cf1565b93506114c98385846114a1565b6114d283610d2c565b840190509392505050565b600060408201905081810360008301526114f88186886114b0565b9050818103602083015261150d8184866114b0565b90509594505050505056fea2646970667358221220dc086c92ef5be232edbce9a490ea2d8eb207bf64b6f056e8990792c43703273164736f6c634300081c0033","opcodes":"PUSH1 0x80 PUSH1 0x40 MSTORE CALLVALUE DUP1 ISZERO PUSH2 0x10 JUMPI PUSH1 0x0 DUP1 REVERT JUMPDEST POP CALLER PUSH1 0x0 PUSH20 0xFFFFFFFFFFFFFFFFFFFFFFFFFFFFFFFFFFFFFFFF AND DUP2 PUSH20 0xFFFFFFFFFFFFFFFFFFFFFFFFFFFFFFFFFFFFFFFF AND SUB PUSH2 0x84 JUMPI PUSH1 0x0 PUSH1 0x40 MLOAD PUSH32 0x1E4FBDF700000000000000000000000000000000000000000000000000000000 DUP2 MSTORE PUSH1 0x4 ADD PUSH2 0x7B SWAP2 SWAP1 PUSH2 0x19E JUMP JUMPDEST PUSH1 0x40 MLOAD DUP1 SWAP2 SUB SWAP1 REVERT JUMPDEST PUSH2 0x93 DUP2 PUSH2 0x99 PUSH1 0x20 SHL PUSH1 0x20 SHR JUMP JUMPDEST POP PUSH2 0x1B9 JUMP JUMPDEST PUSH1 0x0 DUP1 PUSH1 0x0 SWAP1 SLOAD SWAP1 PUSH2 0x100 EXP SWAP1 DIV PUSH20 0xFFFFFFFFFFFFFFFFFFFFFFFFFFFFFFFFFFFFFFFF AND SWAP1 POP DUP2 PUSH1 0x0 DUP1 PUSH2 0x100 EXP DUP2 SLOAD DUP2 PUSH20 0xFFFFFFFFFFFFFFFFFFFFFFFFFFFFFFFFFFFFFFFF MUL NOT AND SWAP1 DUP4 PUSH20 0xFFFFFFFFFFFFFFFFFFFFFFFFFFFFFFFFFFFFFFFF AND MUL OR SWAP1 SSTORE POP DUP2 PUSH20 0xFFFFFFFFFFFFFFFFFFFFFFFFFFFFFFFFFFFFFFFF AND DUP2 PUSH20 0xFFFFFFFFFFFFFFFFFFFFFFFFFFFFFFFFFFFFFFFF AND PUSH32 0x8BE0079C531659141344CD1FD0A4F28419497F9722A3DAAFE3B4186F6B6457E0 PUSH1 0x40 MLOAD PUSH1 0x40 MLOAD DUP1 SWAP2 SUB SWAP1 LOG3 POP POP JUMP JUMPDEST PUSH1 0x0 PUSH20 0xFFFFFFFFFFFFFFFFFFFFFFFFFFFFFFFFFFFFFFFF DUP3 AND SWAP1 POP SWAP2 SWAP1 POP JUMP JUMPDEST PUSH1 0x0 PUSH2 0x188 DUP3 PUSH2 0x15D JUMP JUMPDEST SWAP1 POP SWAP2 SWAP1 POP JUMP JUMPDEST PUSH2 0x198 DUP2 PUSH2 0x17D JUMP JUMPDEST DUP3 MSTORE POP POP JUMP JUMPDEST PUSH1 0x0 PUSH1 0x20 DUP3 ADD SWAP1 POP PUSH2 0x1B3 PUSH1 0x0 DUP4 ADD DUP5 PUSH2 0x18F JUMP JUMPDEST SWAP3 SWAP2 POP POP JUMP JUMPDEST PUSH2 0x154E DUP1 PUSH2 0x1C8 PUSH1 0x0 CODECOPY PUSH1 0x0 RETURN INVALID PUSH1 0x80 PUSH1 0x40 MSTORE CALLVALUE DUP1 ISZERO PUSH2 0x10 JUMPI PUSH1 0x0 DUP1 REVERT JUMPDEST POP PUSH1 0x4 CALLDATASIZE LT PUSH2 0x62 JUMPI PUSH1 0x0 CALLDATALOAD PUSH1 0xE0 SHR DUP1 PUSH4 0x2B2805DB EQ PUSH2 0x67 JUMPI DUP1 PUSH4 0x4FE94F59 EQ PUSH2 0x9E JUMPI DUP1 PUSH4 0x715018A6 EQ PUSH2 0xBA JUMPI DUP1 PUSH4 0x8DA5CB5B EQ PUSH2 0xC4 JUMPI DUP1 PUSH4 0xB10D6B41 EQ PUSH2 0xE2 JUMPI DUP1 PUSH4 0xF2FDE38B EQ PUSH2 0x118 JUMPI JUMPDEST PUSH1 0x0 DUP1 REVERT JUMPDEST PUSH2 0x81 PUSH1 0x4 DUP1 CALLDATASIZE SUB DUP2 ADD SWAP1 PUSH2 0x7C SWAP2 SWAP1 PUSH2 0xCAA JUMP JUMPDEST PUSH2 0x134 JUMP JUMPDEST PUSH1 0x40 MLOAD PUSH2 0x95 SWAP9 SWAP8 SWAP7 SWAP6 SWAP5 SWAP4 SWAP3 SWAP2 SWAP1 PUSH2 0xDAA JUMP JUMPDEST PUSH1 0x40 MLOAD DUP1 SWAP2 SUB SWAP1 RETURN JUMPDEST PUSH2 0xB8 PUSH1 0x4 DUP1 CALLDATASIZE SUB DUP2 ADD SWAP1 PUSH2 0xB3 SWAP2 SWAP1 PUSH2 0xEB0 JUMP JUMPDEST PUSH2 0x431 JUMP JUMPDEST STOP JUMPDEST PUSH2 0xC2 PUSH2 0x731 JUMP JUMPDEST STOP JUMPDEST PUSH2 0xCC PUSH2 0x745 JUMP JUMPDEST PUSH1 0x40 MLOAD PUSH2 0xD9 SWAP2 SWAP1 PUSH2 0x1022 JUMP JUMPDEST PUSH1 0x40 MLOAD DUP1 SWAP2 SUB SWAP1 RETURN JUMPDEST PUSH2 0xFC PUSH1 0x4 DUP1 CALLDATASIZE SUB DUP2 ADD SWAP1 PUSH2 0xF7 SWAP2 SWAP1 PUSH2 0xCAA JUMP JUMPDEST PUSH2 0x76E JUMP JUMPDEST PUSH1 0x40 MLOAD PUSH2 0x10F SWAP8 SWAP7 SWAP6 SWAP5 SWAP4 SWAP3 SWAP2 SWAP1 PUSH2 0x103D JUMP JUMPDEST PUSH1 0x40 MLOAD DUP1 SWAP2 SUB SWAP1 RETURN JUMPDEST PUSH2 0x132 PUSH1 0x4 DUP1 CALLDATASIZE SUB DUP2 ADD SWAP1 PUSH2 0x12D SWAP2 SWAP1 PUSH2 0x10FB JUMP JUMPDEST PUSH2 0xA91 JUMP JUMPDEST STOP JUMPDEST PUSH1 0x1 PUSH1 0x20 MSTORE DUP1 PUSH1 0x0 MSTORE PUSH1 0x40 PUSH1 0x0 KECCAK256 PUSH1 0x0 SWAP2 POP SWAP1 POP DUP1 PUSH1 0x0 ADD SLOAD SWAP1 DUP1 PUSH1 0x1 ADD DUP1 SLOAD PUSH2 0x15D SWAP1 PUSH2 0x1157 JUMP JUMPDEST DUP1 PUSH1 0x1F ADD PUSH1 0x20 DUP1 SWAP2 DIV MUL PUSH1 0x20 ADD PUSH1 0x40 MLOAD SWAP1 DUP2 ADD PUSH1 0x40 MSTORE DUP1 SWAP3 SWAP2 SWAP1 DUP2 DUP2 MSTORE PUSH1 0x20 ADD DUP3 DUP1 SLOAD PUSH2 0x189 SWAP1 PUSH2 0x1157 JUMP JUMPDEST DUP1 ISZERO PUSH2 0x1D6 JUMPI DUP1 PUSH1 0x1F LT PUSH2 0x1AB JUMPI PUSH2 0x100 DUP1 DUP4 SLOAD DIV MUL DUP4 MSTORE SWAP2 PUSH1 0x20 ADD SWAP2 PUSH2 0x1D6 JUMP JUMPDEST DUP3 ADD SWAP2 SWAP1 PUSH1 0x0 MSTORE PUSH1 0x20 PUSH1 0x0 KECCAK256 SWAP1 JUMPDEST DUP2 SLOAD DUP2 MSTORE SWAP1 PUSH1 0x1 ADD SWAP1 PUSH1 0x20 ADD DUP1 DUP4 GT PUSH2 0x1B9 JUMPI DUP3 SWAP1 SUB PUSH1 0x1F AND DUP3 ADD SWAP2 JUMPDEST POP POP POP POP POP SWAP1 DUP1 PUSH1 0x2 ADD DUP1 SLOAD PUSH2 0x1EB SWAP1 PUSH2 0x1157 JUMP JUMPDEST DUP1 PUSH1 0x1F ADD PUSH1 0x20 DUP1 SWAP2 DIV MUL PUSH1 0x20 ADD PUSH1 0x40 MLOAD SWAP1 DUP2 ADD PUSH1 0x40 MSTORE DUP1 SWAP3 SWAP2 SWAP1 DUP2 DUP2 MSTORE PUSH1 0x20 ADD DUP3 DUP1 SLOAD PUSH2 0x217 SWAP1 PUSH2 0x1157 JUMP JUMPDEST DUP1 ISZERO PUSH2 0x264 JUMPI DUP1 PUSH1 0x1F LT PUSH2 0x239 JUMPI PUSH2 0x100 DUP1 DUP4 SLOAD DIV MUL DUP4 MSTORE SWAP2 PUSH1 0x20 ADD SWAP2 PUSH2 0x264 JUMP JUMPDEST DUP3 ADD SWAP2 SWAP1 PUSH1 0x0 MSTORE PUSH1 0x20 PUSH1 0x0 KECCAK256 SWAP1 JUMPDEST DUP2 SLOAD DUP2 MSTORE SWAP1 PUSH1 0x1 ADD SWAP1 PUSH1 0x20 ADD DUP1 DUP4 GT PUSH2 0x247 JUMPI DUP3 SWAP1 SUB PUSH1 0x1F AND DUP3 ADD SWAP2 JUMPDEST POP POP POP POP POP SWAP1 DUP1 PUSH1 0x3 ADD DUP1 SLOAD PUSH2 0x279 SWAP1 PUSH2 0x1157 JUMP JUMPDEST DUP1 PUSH1 0x1F ADD PUSH1 0x20 DUP1 SWAP2 DIV MUL PUSH1 0x20 ADD PUSH1 0x40 MLOAD SWAP1 DUP2 ADD PUSH1 0x40 MSTORE DUP1 SWAP3 SWAP2 SWAP1 DUP2 DUP2 MSTORE PUSH1 0x20 ADD DUP3 DUP1 SLOAD PUSH2 0x2A5 SWAP1 PUSH2 0x1157 JUMP JUMPDEST DUP1 ISZERO PUSH2 0x2F2 JUMPI DUP1 PUSH1 0x1F LT PUSH2 0x2C7 JUMPI PUSH2 0x100 DUP1 DUP4 SLOAD DIV MUL DUP4 MSTORE SWAP2 PUSH1 0x20 ADD SWAP2 PUSH2 0x2F2 JUMP JUMPDEST DUP3 ADD SWAP2 SWAP1 PUSH1 0x0 MSTORE PUSH1 0x20 PUSH1 0x0 KECCAK256 SWAP1 JUMPDEST DUP2 SLOAD DUP2 MSTORE SWAP1 PUSH1 0x1 ADD SWAP1 PUSH1 0x20 ADD DUP1 DUP4 GT PUSH2 0x2D5 JUMPI DUP3 SWAP1 SUB PUSH1 0x1F AND DUP3 ADD SWAP2 JUMPDEST POP POP POP POP POP SWAP1 DUP1 PUSH1 0x4 ADD DUP1 SLOAD PUSH2 0x307 SWAP1 PUSH2 0x1157 JUMP JUMPDEST DUP1 PUSH1 0x1F ADD PUSH1 0x20 DUP1 SWAP2 DIV MUL PUSH1 0x20 ADD PUSH1 0x40 MLOAD SWAP1 DUP2 ADD PUSH1 0x40 MSTORE DUP1 SWAP3 SWAP2 SWAP1 DUP2 DUP2 MSTORE PUSH1 0x20 ADD DUP3 DUP1 SLOAD PUSH2 0x333 SWAP1 PUSH2 0x1157 JUMP JUMPDEST DUP1 ISZERO PUSH2 0x380 JUMPI DUP1 PUSH1 0x1F LT PUSH2 0x355 JUMPI PUSH2 0x100 DUP1 DUP4 SLOAD DIV MUL DUP4 MSTORE SWAP2 PUSH1 0x20 ADD SWAP2 PUSH2 0x380 JUMP JUMPDEST DUP3 ADD SWAP2 SWAP1 PUSH1 0x0 MSTORE PUSH1 0x20 PUSH1 0x0 KECCAK256 SWAP1 JUMPDEST DUP2 SLOAD DUP2 MSTORE SWAP1 PUSH1 0x1 ADD SWAP1 PUSH1 0x20 ADD DUP1 DUP4 GT PUSH2 0x363 JUMPI DUP3 SWAP1 SUB PUSH1 0x1F AND DUP3 ADD SWAP2 JUMPDEST POP POP POP POP POP SWAP1 DUP1 PUSH1 0x5 ADD DUP1 SLOAD PUSH2 0x395 SWAP1 PUSH2 0x1157 JUMP JUMPDEST DUP1 PUSH1 0x1F ADD PUSH1 0x20 DUP1 SWAP2 DIV MUL PUSH1 0x20 ADD PUSH1 0x40 MLOAD SWAP1 DUP2 ADD PUSH1 0x40 MSTORE DUP1 SWAP3 SWAP2 SWAP1 DUP2 DUP2 MSTORE PUSH1 0x20 ADD DUP3 DUP1 SLOAD PUSH2 0x3C1 SWAP1 PUSH2 0x1157 JUMP JUMPDEST DUP1 ISZERO PUSH2 0x40E JUMPI DUP1 PUSH1 0x1F LT PUSH2 0x3E3 JUMPI PUSH2 0x100 DUP1 DUP4 SLOAD DIV MUL DUP4 MSTORE SWAP2 PUSH1 0x20 ADD SWAP2 PUSH2 0x40E JUMP JUMPDEST DUP3 ADD SWAP2 SWAP1 PUSH1 0x0 MSTORE PUSH1 0x20 PUSH1 0x0 KECCAK256 SWAP1 JUMPDEST DUP2 SLOAD DUP2 MSTORE SWAP1 PUSH1 0x1 ADD SWAP1 PUSH1 0x20 ADD DUP1 DUP4 GT PUSH2 0x3F1 JUMPI DUP3 SWAP1 SUB PUSH1 0x1F AND DUP3 ADD SWAP2 JUMPDEST POP POP POP POP POP SWAP1 DUP1 PUSH1 0x6 ADD SLOAD SWAP1 DUP1 PUSH1 0x7 ADD PUSH1 0x0 SWAP1 SLOAD SWAP1 PUSH2 0x100 EXP SWAP1 DIV PUSH1 0xFF AND SWAP1 POP DUP9 JUMP JUMPDEST PUSH2 0x439 PUSH2 0xB17 JUMP JUMPDEST PUSH1 0x1 PUSH1 0x0 DUP13 DUP2 MSTORE PUSH1 0x20 ADD SWAP1 DUP2 MSTORE PUSH1 0x20 ADD PUSH1 0x0 KECCAK256 PUSH1 0x7 ADD PUSH1 0x0 SWAP1 SLOAD SWAP1 PUSH2 0x100 EXP SWAP1 DIV PUSH1 0xFF AND ISZERO PUSH2 0x49D JUMPI PUSH1 0x40 MLOAD PUSH32 0x8C379A000000000000000000000000000000000000000000000000000000000 DUP2 MSTORE PUSH1 0x4 ADD PUSH2 0x494 SWAP1 PUSH2 0x11D4 JUMP JUMPDEST PUSH1 0x40 MLOAD DUP1 SWAP2 SUB SWAP1 REVERT JUMPDEST PUSH1 0x40 MLOAD DUP1 PUSH2 0x100 ADD PUSH1 0x40 MSTORE DUP1 DUP13 DUP2 MSTORE PUSH1 0x20 ADD DUP12 DUP12 DUP1 DUP1 PUSH1 0x1F ADD PUSH1 0x20 DUP1 SWAP2 DIV MUL PUSH1 0x20 ADD PUSH1 0x40 MLOAD SWAP1 DUP2 ADD PUSH1 0x40 MSTORE DUP1 SWAP4 SWAP3 SWAP2 SWAP1 DUP2 DUP2 MSTORE PUSH1 0x20 ADD DUP4 DUP4 DUP1 DUP3 DUP5 CALLDATACOPY PUSH1 0x0 DUP2 DUP5 ADD MSTORE PUSH1 0x1F NOT PUSH1 0x1F DUP3 ADD AND SWAP1 POP DUP1 DUP4 ADD SWAP3 POP POP POP POP POP POP POP DUP2 MSTORE PUSH1 0x20 ADD DUP10 DUP10 DUP1 DUP1 PUSH1 0x1F ADD PUSH1 0x20 DUP1 SWAP2 DIV MUL PUSH1 0x20 ADD PUSH1 0x40 MLOAD SWAP1 DUP2 ADD PUSH1 0x40 MSTORE DUP1 SWAP4 SWAP3 SWAP2 SWAP1 DUP2 DUP2 MSTORE PUSH1 0x20 ADD DUP4 DUP4 DUP1 DUP3 DUP5 CALLDATACOPY PUSH1 0x0 DUP2 DUP5 ADD MSTORE PUSH1 0x1F NOT PUSH1 0x1F DUP3 ADD AND SWAP1 POP DUP1 DUP4 ADD SWAP3 POP POP POP POP POP POP POP DUP2 MSTORE PUSH1 0x20 ADD DUP8 DUP8 DUP1 DUP1 PUSH1 0x1F ADD PUSH1 0x20 DUP1 SWAP2 DIV MUL PUSH1 0x20 ADD PUSH1 0x40 MLOAD SWAP1 DUP2 ADD PUSH1 0x40 MSTORE DUP1 SWAP4 SWAP3 SWAP2 SWAP1 DUP2 DUP2 MSTORE PUSH1 0x20 ADD DUP4 DUP4 DUP1 DUP3 DUP5 CALLDATACOPY PUSH1 0x0 DUP2 DUP5 ADD MSTORE PUSH1 0x1F NOT PUSH1 0x1F DUP3 ADD AND SWAP1 POP DUP1 DUP4 ADD SWAP3 POP POP POP POP POP POP POP DUP2 MSTORE PUSH1 0x20 ADD DUP6 DUP6 DUP1 DUP1 PUSH1 0x1F ADD PUSH1 0x20 DUP1 SWAP2 DIV MUL PUSH1 0x20 ADD PUSH1 0x40 MLOAD SWAP1 DUP2 ADD PUSH1 0x40 MSTORE DUP1 SWAP4 SWAP3 SWAP2 SWAP1 DUP2 DUP2 MSTORE PUSH1 0x20 ADD DUP4 DUP4 DUP1 DUP3 DUP5 CALLDATACOPY PUSH1 0x0 DUP2 DUP5 ADD MSTORE PUSH1 0x1F NOT PUSH1 0x1F DUP3 ADD AND SWAP1 POP DUP1 DUP4 ADD SWAP3 POP POP POP POP POP POP POP DUP2 MSTORE PUSH1 0x20 ADD DUP4 DUP4 DUP1 DUP1 PUSH1 0x1F ADD PUSH1 0x20 DUP1 SWAP2 DIV MUL PUSH1 0x20 ADD PUSH1 0x40 MLOAD SWAP1 DUP2 ADD PUSH1 0x40 MSTORE DUP1 SWAP4 SWAP3 SWAP2 SWAP1 DUP2 DUP2 MSTORE PUSH1 0x20 ADD DUP4 DUP4 DUP1 DUP3 DUP5 CALLDATACOPY PUSH1 0x0 DUP2 DUP5 ADD MSTORE PUSH1 0x1F NOT PUSH1 0x1F DUP3 ADD AND SWAP1 POP DUP1 DUP4 ADD SWAP3 POP POP POP POP POP POP POP DUP2 MSTORE PUSH1 0x20 ADD TIMESTAMP DUP2 MSTORE PUSH1 0x20 ADD PUSH1 0x1 ISZERO ISZERO DUP2 MSTORE POP PUSH1 0x1 PUSH1 0x0 DUP14 DUP2 MSTORE PUSH1 0x20 ADD SWAP1 DUP2 MSTORE PUSH1 0x20 ADD PUSH1 0x0 KECCAK256 PUSH1 0x0 DUP3 ADD MLOAD DUP2 PUSH1 0x0 ADD SSTORE PUSH1 0x20 DUP3 ADD MLOAD DUP2 PUSH1 0x1 ADD SWAP1 DUP2 PUSH2 0x660 SWAP2 SWAP1 PUSH2 0x13CF JUMP JUMPDEST POP PUSH1 0x40 DUP3 ADD MLOAD DUP2 PUSH1 0x2 ADD SWAP1 DUP2 PUSH2 0x676 SWAP2 SWAP1 PUSH2 0x13CF JUMP JUMPDEST POP PUSH1 0x60 DUP3 ADD MLOAD DUP2 PUSH1 0x3 ADD SWAP1 DUP2 PUSH2 0x68C SWAP2 SWAP1 PUSH2 0x13CF JUMP JUMPDEST POP PUSH1 0x80 DUP3 ADD MLOAD DUP2 PUSH1 0x4 ADD SWAP1 DUP2 PUSH2 0x6A2 SWAP2 SWAP1 PUSH2 0x13CF JUMP JUMPDEST POP PUSH1 0xA0 DUP3 ADD MLOAD DUP2 PUSH1 0x5 ADD SWAP1 DUP2 PUSH2 0x6B8 SWAP2 SWAP1 PUSH2 0x13CF JUMP JUMPDEST POP PUSH1 0xC0 DUP3 ADD MLOAD DUP2 PUSH1 0x6 ADD SSTORE PUSH1 0xE0 DUP3 ADD MLOAD DUP2 PUSH1 0x7 ADD PUSH1 0x0 PUSH2 0x100 EXP DUP2 SLOAD DUP2 PUSH1 0xFF MUL NOT AND SWAP1 DUP4 ISZERO ISZERO MUL OR SWAP1 SSTORE POP SWAP1 POP POP DUP11 PUSH32 0x56233CFCF8A7ADC73B7868F384C31831B4B6DEF192EC6AC2C83DB4B2A7FD055F DUP12 DUP12 DUP12 DUP12 PUSH1 0x40 MLOAD PUSH2 0x71C SWAP5 SWAP4 SWAP3 SWAP2 SWAP1 PUSH2 0x14DD JUMP JUMPDEST PUSH1 0x40 MLOAD DUP1 SWAP2 SUB SWAP1 LOG2 POP POP POP POP POP POP POP POP POP POP POP JUMP JUMPDEST PUSH2 0x739 PUSH2 0xB17 JUMP JUMPDEST PUSH2 0x743 PUSH1 0x0 PUSH2 0xB9E JUMP JUMPDEST JUMP JUMPDEST PUSH1 0x0 DUP1 PUSH1 0x0 SWAP1 SLOAD SWAP1 PUSH2 0x100 EXP SWAP1 DIV PUSH20 0xFFFFFFFFFFFFFFFFFFFFFFFFFFFFFFFFFFFFFFFF AND SWAP1 POP SWAP1 JUMP JUMPDEST PUSH1 0x0 PUSH1 0x60 DUP1 PUSH1 0x60 DUP1 PUSH1 0x60 PUSH1 0x0 DUP1 PUSH1 0x1 PUSH1 0x0 DUP11 DUP2 MSTORE PUSH1 0x20 ADD SWAP1 DUP2 MSTORE PUSH1 0x20 ADD PUSH1 0x0 KECCAK256 SWAP1 POP DUP1 PUSH1 0x7 ADD PUSH1 0x0 SWAP1 SLOAD SWAP1 PUSH2 0x100 EXP SWAP1 DIV PUSH1 0xFF AND DUP2 PUSH1 0x1 ADD DUP3 PUSH1 0x2 ADD DUP4 PUSH1 0x3 ADD DUP5 PUSH1 0x4 ADD DUP6 PUSH1 0x5 ADD DUP7 PUSH1 0x6 ADD SLOAD DUP6 DUP1 SLOAD PUSH2 0x7C7 SWAP1 PUSH2 0x1157 JUMP JUMPDEST DUP1 PUSH1 0x1F ADD PUSH1 0x20 DUP1 SWAP2 DIV MUL PUSH1 0x20 ADD PUSH1 0x40 MLOAD SWAP1 DUP2 ADD PUSH1 0x40 MSTORE DUP1 SWAP3 SWAP2 SWAP1 DUP2 DUP2 MSTORE PUSH1 0x20 ADD DUP3 DUP1 SLOAD PUSH2 0x7F3 SWAP1 PUSH2 0x1157 JUMP JUMPDEST DUP1 ISZERO PUSH2 0x840 JUMPI DUP1 PUSH1 0x1F LT PUSH2 0x815 JUMPI PUSH2 0x100 DUP1 DUP4 SLOAD DIV MUL DUP4 MSTORE SWAP2 PUSH1 0x20 ADD SWAP2 PUSH2 0x840 JUMP JUMPDEST DUP3 ADD SWAP2 SWAP1 PUSH1 0x0 MSTORE PUSH1 0x20 PUSH1 0x0 KECCAK256 SWAP1 JUMPDEST DUP2 SLOAD DUP2 MSTORE SWAP1 PUSH1 0x1 ADD SWAP1 PUSH1 0x20 ADD DUP1 DUP4 GT PUSH2 0x823 JUMPI DUP3 SWAP1 SUB PUSH1 0x1F AND DUP3 ADD SWAP2 JUMPDEST POP POP POP POP POP SWAP6 POP DUP5 DUP1 SLOAD PUSH2 0x853 SWAP1 PUSH2 0x1157 JUMP JUMPDEST DUP1 PUSH1 0x1F ADD PUSH1 0x20 DUP1 SWAP2 DIV MUL PUSH1 0x20 ADD PUSH1 0x40 MLOAD SWAP1 DUP2 ADD PUSH1 0x40 MSTORE DUP1 SWAP3 SWAP2 SWAP1 DUP2 DUP2 MSTORE PUSH1 0x20 ADD DUP3 DUP1 SLOAD PUSH2 0x87F SWAP1 PUSH2 0x1157 JUMP JUMPDEST DUP1 ISZERO PUSH2 0x8CC JUMPI DUP1 PUSH1 0x1F LT PUSH2 0x8A1 JUMPI PUSH2 0x100 DUP1 DUP4 SLOAD DIV MUL DUP4 MSTORE SWAP2 PUSH1 0x20 ADD SWAP2 PUSH2 0x8CC JUMP JUMPDEST DUP3 ADD SWAP2 SWAP1 PUSH1 0x0 MSTORE PUSH1 0x20 PUSH1 0x0 KECCAK256 SWAP1 JUMPDEST DUP2 SLOAD DUP2 MSTORE SWAP1 PUSH1 0x1 ADD SWAP1 PUSH1 0x20 ADD DUP1 DUP4 GT PUSH2 0x8AF JUMPI DUP3 SWAP1 SUB PUSH1 0x1F AND DUP3 ADD SWAP2 JUMPDEST POP POP POP POP POP SWAP5 POP DUP4 DUP1 SLOAD PUSH2 0x8DF SWAP1 PUSH2 0x1157 JUMP JUMPDEST DUP1 PUSH1 0x1F ADD PUSH1 0x20 DUP1 SWAP2 DIV MUL PUSH1 0x20 ADD PUSH1 0x40 MLOAD SWAP1 DUP2 ADD PUSH1 0x40 MSTORE DUP1 SWAP3 SWAP2 SWAP1 DUP2 DUP2 MSTORE PUSH1 0x20 ADD DUP3 DUP1 SLOAD PUSH2 0x90B SWAP1 PUSH2 0x1157 JUMP JUMPDEST DUP1 ISZERO PUSH2 0x958 JUMPI DUP1 PUSH1 0x1F LT PUSH2 0x92D JUMPI PUSH2 0x100 DUP1 DUP4 SLOAD DIV MUL DUP4 MSTORE SWAP2 PUSH1 0x20 ADD SWAP2 PUSH2 0x958 JUMP JUMPDEST DUP3 ADD SWAP2 SWAP1 PUSH1 0x0 MSTORE PUSH1 0x20 PUSH1 0x0 KECCAK256 SWAP1 JUMPDEST DUP2 SLOAD DUP2 MSTORE SWAP1 PUSH1 0x1 ADD SWAP1 PUSH1 0x20 ADD DUP1 DUP4 GT PUSH2 0x93B JUMPI DUP3 SWAP1 SUB PUSH1 0x1F AND DUP3 ADD SWAP2 JUMPDEST POP POP POP POP POP SWAP4 POP DUP3 DUP1 SLOAD PUSH2 0x96B SWAP1 PUSH2 0x1157 JUMP JUMPDEST DUP1 PUSH1 0x1F ADD PUSH1 0x20 DUP1 SWAP2 DIV MUL PUSH1 0x20 ADD PUSH1 0x40 MLOAD SWAP1 DUP2 ADD PUSH1 0x40 MSTORE DUP1 SWAP3 SWAP2 SWAP1 DUP2 DUP2 MSTORE PUSH1 0x20 ADD DUP3 DUP1 SLOAD PUSH2 0x997 SWAP1 PUSH2 0x1157 JUMP JUMPDEST DUP1 ISZERO PUSH2 0x9E4 JUMPI DUP1 PUSH1 0x1F LT PUSH2 0x9B9 JUMPI PUSH2 0x100 DUP1 DUP4 SLOAD DIV MUL DUP4 MSTORE SWAP2 PUSH1 0x20 ADD SWAP2 PUSH2 0x9E4 JUMP JUMPDEST DUP3 ADD SWAP2 SWAP1 PUSH1 0x0 MSTORE PUSH1 0x20 PUSH1 0x0 KECCAK256 SWAP1 JUMPDEST DUP2 SLOAD DUP2 MSTORE SWAP1 PUSH1 0x1 ADD SWAP1 PUSH1 0x20 ADD DUP1 DUP4 GT PUSH2 0x9C7 JUMPI DUP3 SWAP1 SUB PUSH1 0x1F AND DUP3 ADD SWAP2 JUMPDEST POP POP POP POP POP SWAP3 POP DUP2 DUP1 SLOAD PUSH2 0x9F7 SWAP1 PUSH2 0x1157 JUMP JUMPDEST DUP1 PUSH1 0x1F ADD PUSH1 0x20 DUP1 SWAP2 DIV MUL PUSH1 0x20 ADD PUSH1 0x40 MLOAD SWAP1 DUP2 ADD PUSH1 0x40 MSTORE DUP1 SWAP3 SWAP2 SWAP1 DUP2 DUP2 MSTORE PUSH1 0x20 ADD DUP3 DUP1 SLOAD PUSH2 0xA23 SWAP1 PUSH2 0x1157 JUMP JUMPDEST DUP1 ISZERO PUSH2 0xA70 JUMPI DUP1 PUSH1 0x1F LT PUSH2 0xA45 JUMPI PUSH2 0x100 DUP1 DUP4 SLOAD DIV MUL DUP4 MSTORE SWAP2 PUSH1 0x20 ADD SWAP2 PUSH2 0xA70 JUMP JUMPDEST DUP3 ADD SWAP2 SWAP1 PUSH1 0x0 MSTORE PUSH1 0x20 PUSH1 0x0 KECCAK256 SWAP1 JUMPDEST DUP2 SLOAD DUP2 MSTORE SWAP1 PUSH1 0x1 ADD SWAP1 PUSH1 0x20 ADD DUP1 DUP4 GT PUSH2 0xA53 JUMPI DUP3 SWAP1 SUB PUSH1 0x1F AND DUP3 ADD SWAP2 JUMPDEST POP POP POP POP POP SWAP2 POP SWAP8 POP SWAP8 POP SWAP8 POP SWAP8 POP SWAP8 POP SWAP8 POP SWAP8 POP POP SWAP2 SWAP4 SWAP6 SWAP8 SWAP1 SWAP3 SWAP5 SWAP7 POP JUMP JUMPDEST PUSH2 0xA99 PUSH2 0xB17 JUMP JUMPDEST PUSH1 0x0 PUSH20 0xFFFFFFFFFFFFFFFFFFFFFFFFFFFFFFFFFFFFFFFF AND DUP2 PUSH20 0xFFFFFFFFFFFFFFFFFFFFFFFFFFFFFFFFFFFFFFFF AND SUB PUSH2 0xB0B JUMPI PUSH1 0x0 PUSH1 0x40 MLOAD PUSH32 0x1E4FBDF700000000000000000000000000000000000000000000000000000000 DUP2 MSTORE PUSH1 0x4 ADD PUSH2 0xB02 SWAP2 SWAP1 PUSH2 0x1022 JUMP JUMPDEST PUSH1 0x40 MLOAD DUP1 SWAP2 SUB SWAP1 REVERT JUMPDEST PUSH2 0xB14 DUP2 PUSH2 0xB9E JUMP JUMPDEST POP JUMP JUMPDEST PUSH2 0xB1F PUSH2 0xC62 JUMP JUMPDEST PUSH20 0xFFFFFFFFFFFFFFFFFFFFFFFFFFFFFFFFFFFFFFFF AND PUSH2 0xB3D PUSH2 0x745 JUMP JUMPDEST PUSH20 0xFFFFFFFFFFFFFFFFFFFFFFFFFFFFFFFFFFFFFFFF AND EQ PUSH2 0xB9C JUMPI PUSH2 0xB60 PUSH2 0xC62 JUMP JUMPDEST PUSH1 0x40 MLOAD PUSH32 0x118CDAA700000000000000000000000000000000000000000000000000000000 DUP2 MSTORE PUSH1 0x4 ADD PUSH2 0xB93 SWAP2 SWAP1 PUSH2 0x1022 JUMP JUMPDEST PUSH1 0x40 MLOAD DUP1 SWAP2 SUB SWAP1 REVERT JUMPDEST JUMP JUMPDEST PUSH1 0x0 DUP1 PUSH1 0x0 SWAP1 SLOAD SWAP1 PUSH2 0x100 EXP SWAP1 DIV PUSH20 0xFFFFFFFFFFFFFFFFFFFFFFFFFFFFFFFFFFFFFFFF AND SWAP1 POP DUP2 PUSH1 0x0 DUP1 PUSH2 0x100 EXP DUP2 SLOAD DUP2 PUSH20 0xFFFFFFFFFFFFFFFFFFFFFFFFFFFFFFFFFFFFFFFF MUL NOT AND SWAP1 DUP4 PUSH20 0xFFFFFFFFFFFFFFFFFFFFFFFFFFFFFFFFFFFFFFFF AND MUL OR SWAP1 SSTORE POP DUP2 PUSH20 0xFFFFFFFFFFFFFFFFFFFFFFFFFFFFFFFFFFFFFFFF AND DUP2 PUSH20 0xFFFFFFFFFFFFFFFFFFFFFFFFFFFFFFFFFFFFFFFF AND PUSH32 0x8BE0079C531659141344CD1FD0A4F28419497F9722A3DAAFE3B4186F6B6457E0 PUSH1 0x40 MLOAD PUSH1 0x40 MLOAD DUP1 SWAP2 SUB SWAP1 LOG3 POP POP JUMP JUMPDEST PUSH1 0x0 CALLER SWAP1 POP SWAP1 JUMP JUMPDEST PUSH1 0x0 DUP1 REVERT JUMPDEST PUSH1 0x0 DUP1 REVERT JUMPDEST PUSH1 0x0 DUP2 SWAP1 POP SWAP2 SWAP1 POP JUMP JUMPDEST PUSH2 0xC87 DUP2 PUSH2 0xC74 JUMP JUMPDEST DUP2 EQ PUSH2 0xC92 JUMPI PUSH1 0x0 DUP1 REVERT JUMPDEST POP JUMP JUMPDEST PUSH1 0x0 DUP2 CALLDATALOAD SWAP1 POP PUSH2 0xCA4 DUP2 PUSH2 0xC7E JUMP JUMPDEST SWAP3 SWAP2 POP POP JUMP JUMPDEST PUSH1 0x0 PUSH1 0x20 DUP3 DUP5 SUB SLT ISZERO PUSH2 0xCC0 JUMPI PUSH2 0xCBF PUSH2 0xC6A JUMP JUMPDEST JUMPDEST PUSH1 0x0 PUSH2 0xCCE DUP5 DUP3 DUP6 ADD PUSH2 0xC95 JUMP JUMPDEST SWAP2 POP POP SWAP3 SWAP2 POP POP JUMP JUMPDEST PUSH2 0xCE0 DUP2 PUSH2 0xC74 JUMP JUMPDEST DUP3 MSTORE POP POP JUMP JUMPDEST PUSH1 0x0 DUP2 MLOAD SWAP1 POP SWAP2 SWAP1 POP JUMP JUMPDEST PUSH1 0x0 DUP3 DUP3 MSTORE PUSH1 0x20 DUP3 ADD SWAP1 POP SWAP3 SWAP2 POP POP JUMP JUMPDEST PUSH1 0x0 JUMPDEST DUP4 DUP2 LT ISZERO PUSH2 0xD20 JUMPI DUP1 DUP3 ADD MLOAD DUP2 DUP5 ADD MSTORE PUSH1 0x20 DUP2 ADD SWAP1 POP PUSH2 0xD05 JUMP JUMPDEST PUSH1 0x0 DUP5 DUP5 ADD MSTORE POP POP POP POP JUMP JUMPDEST PUSH1 0x0 PUSH1 0x1F NOT PUSH1 0x1F DUP4 ADD AND SWAP1 POP SWAP2 SWAP1 POP JUMP JUMPDEST PUSH1 0x0 PUSH2 0xD48 DUP3 PUSH2 0xCE6 JUMP JUMPDEST PUSH2 0xD52 DUP2 DUP6 PUSH2 0xCF1 JUMP JUMPDEST SWAP4 POP PUSH2 0xD62 DUP2 DUP6 PUSH1 0x20 DUP7 ADD PUSH2 0xD02 JUMP JUMPDEST PUSH2 0xD6B DUP2 PUSH2 0xD2C JUMP JUMPDEST DUP5 ADD SWAP2 POP POP SWAP3 SWAP2 POP POP JUMP JUMPDEST PUSH1 0x0 DUP2 SWAP1 POP SWAP2 SWAP1 POP JUMP JUMPDEST PUSH2 0xD89 DUP2 PUSH2 0xD76 JUMP JUMPDEST DUP3 MSTORE POP POP JUMP JUMPDEST PUSH1 0x0 DUP2 ISZERO ISZERO SWAP1 POP SWAP2 SWAP1 POP JUMP JUMPDEST PUSH2 0xDA4 DUP2 PUSH2 0xD8F JUMP JUMPDEST DUP3 MSTORE POP POP JUMP JUMPDEST PUSH1 0x0 PUSH2 0x100 DUP3 ADD SWAP1 POP PUSH2 0xDC0 PUSH1 0x0 DUP4 ADD DUP12 PUSH2 0xCD7 JUMP JUMPDEST DUP2 DUP2 SUB PUSH1 0x20 DUP4 ADD MSTORE PUSH2 0xDD2 DUP2 DUP11 PUSH2 0xD3D JUMP JUMPDEST SWAP1 POP DUP2 DUP2 SUB PUSH1 0x40 DUP4 ADD MSTORE PUSH2 0xDE6 DUP2 DUP10 PUSH2 0xD3D JUMP JUMPDEST SWAP1 POP DUP2 DUP2 SUB PUSH1 0x60 DUP4 ADD MSTORE PUSH2 0xDFA DUP2 DUP9 PUSH2 0xD3D JUMP JUMPDEST SWAP1 POP DUP2 DUP2 SUB PUSH1 0x80 DUP4 ADD MSTORE PUSH2 0xE0E DUP2 DUP8 PUSH2 0xD3D JUMP JUMPDEST SWAP1 POP DUP2 DUP2 SUB PUSH1 0xA0 DUP4 ADD MSTORE PUSH2 0xE22 DUP2 DUP7 PUSH2 0xD3D JUMP JUMPDEST SWAP1 POP PUSH2 0xE31 PUSH1 0xC0 DUP4 ADD DUP6 PUSH2 0xD80 JUMP JUMPDEST PUSH2 0xE3E PUSH1 0xE0 DUP4 ADD DUP5 PUSH2 0xD9B JUMP JUMPDEST SWAP10 SWAP9 POP POP POP POP POP POP POP POP POP JUMP JUMPDEST PUSH1 0x0 DUP1 REVERT JUMPDEST PUSH1 0x0 DUP1 REVERT JUMPDEST PUSH1 0x0 DUP1 REVERT JUMPDEST PUSH1 0x0 DUP1 DUP4 PUSH1 0x1F DUP5 ADD SLT PUSH2 0xE70 JUMPI PUSH2 0xE6F PUSH2 0xE4B JUMP JUMPDEST JUMPDEST DUP3 CALLDATALOAD SWAP1 POP PUSH8 0xFFFFFFFFFFFFFFFF DUP2 GT ISZERO PUSH2 0xE8D JUMPI PUSH2 0xE8C PUSH2 0xE50 JUMP JUMPDEST JUMPDEST PUSH1 0x20 DUP4 ADD SWAP2 POP DUP4 PUSH1 0x1 DUP3 MUL DUP4 ADD GT ISZERO PUSH2 0xEA9 JUMPI PUSH2 0xEA8 PUSH2 0xE55 JUMP JUMPDEST JUMPDEST SWAP3 POP SWAP3 SWAP1 POP JUMP JUMPDEST PUSH1 0x0 DUP1 PUSH1 0x0 DUP1 PUSH1 0x0 DUP1 PUSH1 0x0 DUP1 PUSH1 0x0 DUP1 PUSH1 0x0 PUSH1 0xC0 DUP13 DUP15 SUB SLT ISZERO PUSH2 0xED5 JUMPI PUSH2 0xED4 PUSH2 0xC6A JUMP JUMPDEST JUMPDEST PUSH1 0x0 PUSH2 0xEE3 DUP15 DUP3 DUP16 ADD PUSH2 0xC95 JUMP JUMPDEST SWAP12 POP POP PUSH1 0x20 DUP13 ADD CALLDATALOAD PUSH8 0xFFFFFFFFFFFFFFFF DUP2 GT ISZERO PUSH2 0xF04 JUMPI PUSH2 0xF03 PUSH2 0xC6F JUMP JUMPDEST JUMPDEST PUSH2 0xF10 DUP15 DUP3 DUP16 ADD PUSH2 0xE5A JUMP JUMPDEST SWAP11 POP SWAP11 POP POP PUSH1 0x40 DUP13 ADD CALLDATALOAD PUSH8 0xFFFFFFFFFFFFFFFF DUP2 GT ISZERO PUSH2 0xF33 JUMPI PUSH2 0xF32 PUSH2 0xC6F JUMP JUMPDEST JUMPDEST PUSH2 0xF3F DUP15 DUP3 DUP16 ADD PUSH2 0xE5A JUMP JUMPDEST SWAP9 POP SWAP9 POP POP PUSH1 0x60 DUP13 ADD CALLDATALOAD PUSH8 0xFFFFFFFFFFFFFFFF DUP2 GT ISZERO PUSH2 0xF62 JUMPI PUSH2 0xF61 PUSH2 0xC6F JUMP JUMPDEST JUMPDEST PUSH2 0xF6E DUP15 DUP3 DUP16 ADD PUSH2 0xE5A JUMP JUMPDEST SWAP7 POP SWAP7 POP POP PUSH1 0x80 DUP13 ADD CALLDATALOAD PUSH8 0xFFFFFFFFFFFFFFFF DUP2 GT ISZERO PUSH2 0xF91 JUMPI PUSH2 0xF90 PUSH2 0xC6F JUMP JUMPDEST JUMPDEST PUSH2 0xF9D DUP15 DUP3 DUP16 ADD PUSH2 0xE5A JUMP JUMPDEST SWAP5 POP SWAP5 POP POP PUSH1 0xA0 DUP13 ADD CALLDATALOAD PUSH8 0xFFFFFFFFFFFFFFFF DUP2 GT ISZERO PUSH2 0xFC0 JUMPI PUSH2 0xFBF PUSH2 0xC6F JUMP JUMPDEST JUMPDEST PUSH2 0xFCC DUP15 DUP3 DUP16 ADD PUSH2 0xE5A JUMP JUMPDEST SWAP3 POP SWAP3 POP POP SWAP3 SWAP6 SWAP9 SWAP12 POP SWAP3 SWAP6 SWAP9 SWAP12 SWAP1 SWAP4 SWAP7 SWAP10 POP JUMP JUMPDEST PUSH1 0x0 PUSH20 0xFFFFFFFFFFFFFFFFFFFFFFFFFFFFFFFFFFFFFFFF DUP3 AND SWAP1 POP SWAP2 SWAP1 POP JUMP JUMPDEST PUSH1 0x0 PUSH2 0x100C DUP3 PUSH2 0xFE1 JUMP JUMPDEST SWAP1 POP SWAP2 SWAP1 POP JUMP JUMPDEST PUSH2 0x101C DUP2 PUSH2 0x1001 JUMP JUMPDEST DUP3 MSTORE POP POP JUMP JUMPDEST PUSH1 0x0 PUSH1 0x20 DUP3 ADD SWAP1 POP PUSH2 0x1037 PUSH1 0x0 DUP4 ADD DUP5 PUSH2 0x1013 JUMP JUMPDEST SWAP3 SWAP2 POP POP JUMP JUMPDEST PUSH1 0x0 PUSH1 0xE0 DUP3 ADD SWAP1 POP PUSH2 0x1052 PUSH1 0x0 DUP4 ADD DUP11 PUSH2 0xD9B JUMP JUMPDEST DUP2 DUP2 SUB PUSH1 0x20 DUP4 ADD MSTORE PUSH2 0x1064 DUP2 DUP10 PUSH2 0xD3D JUMP JUMPDEST SWAP1 POP DUP2 DUP2 SUB PUSH1 0x40 DUP4 ADD MSTORE PUSH2 0x1078 DUP2 DUP9 PUSH2 0xD3D JUMP JUMPDEST SWAP1 POP DUP2 DUP2 SUB PUSH1 0x60 DUP4 ADD MSTORE PUSH2 0x108C DUP2 DUP8 PUSH2 0xD3D JUMP JUMPDEST SWAP1 POP DUP2 DUP2 SUB PUSH1 0x80 DUP4 ADD MSTORE PUSH2 0x10A0 DUP2 DUP7 PUSH2 0xD3D JUMP JUMPDEST SWAP1 POP DUP2 DUP2 SUB PUSH1 0xA0 DUP4 ADD MSTORE PUSH2 0x10B4 DUP2 DUP6 PUSH2 0xD3D JUMP JUMPDEST SWAP1 POP PUSH2 0x10C3 PUSH1 0xC0 DUP4 ADD DUP5 PUSH2 0xD80 JUMP JUMPDEST SWAP9 SWAP8 POP POP POP POP POP POP POP POP JUMP JUMPDEST PUSH2 0x10D8 DUP2 PUSH2 0x1001 JUMP JUMPDEST DUP2 EQ PUSH2 0x10E3 JUMPI PUSH1 0x0 DUP1 REVERT JUMPDEST POP JUMP JUMPDEST PUSH1 0x0 DUP2 CALLDATALOAD SWAP1 POP PUSH2 0x10F5 DUP2 PUSH2 0x10CF JUMP JUMPDEST SWAP3 SWAP2 POP POP JUMP JUMPDEST PUSH1 0x0 PUSH1 0x20 DUP3 DUP5 SUB SLT ISZERO PUSH2 0x1111 JUMPI PUSH2 0x1110 PUSH2 0xC6A JUMP JUMPDEST JUMPDEST PUSH1 0x0 PUSH2 0x111F DUP5 DUP3 DUP6 ADD PUSH2 0x10E6 JUMP JUMPDEST SWAP2 POP POP SWAP3 SWAP2 POP POP JUMP JUMPDEST PUSH32 0x4E487B7100000000000000000000000000000000000000000000000000000000 PUSH1 0x0 MSTORE PUSH1 0x22 PUSH1 0x4 MSTORE PUSH1 0x24 PUSH1 0x0 REVERT JUMPDEST PUSH1 0x0 PUSH1 0x2 DUP3 DIV SWAP1 POP PUSH1 0x1 DUP3 AND DUP1 PUSH2 0x116F JUMPI PUSH1 0x7F DUP3 AND SWAP2 POP JUMPDEST PUSH1 0x20 DUP3 LT DUP2 SUB PUSH2 0x1182 JUMPI PUSH2 0x1181 PUSH2 0x1128 JUMP JUMPDEST JUMPDEST POP SWAP2 SWAP1 POP JUMP JUMPDEST PUSH32 0x446F63756D656E7420616C726561647920766572696669656400000000000000 PUSH1 0x0 DUP3 ADD MSTORE POP JUMP JUMPDEST PUSH1 0x0 PUSH2 0x11BE PUSH1 0x19 DUP4 PUSH2 0xCF1 JUMP JUMPDEST SWAP2 POP PUSH2 0x11C9 DUP3 PUSH2 0x1188 JUMP JUMPDEST PUSH1 0x20 DUP3 ADD SWAP1 POP SWAP2 SWAP1 POP JUMP JUMPDEST PUSH1 0x0 PUSH1 0x20 DUP3 ADD SWAP1 POP DUP2 DUP2 SUB PUSH1 0x0 DUP4 ADD MSTORE PUSH2 0x11ED DUP2 PUSH2 0x11B1 JUMP JUMPDEST SWAP1 POP SWAP2 SWAP1 POP JUMP JUMPDEST PUSH32 0x4E487B7100000000000000000000000000000000000000000000000000000000 PUSH1 0x0 MSTORE PUSH1 0x41 PUSH1 0x4 MSTORE PUSH1 0x24 PUSH1 0x0 REVERT JUMPDEST PUSH1 0x0 DUP2 SWAP1 POP DUP2 PUSH1 0x0 MSTORE PUSH1 0x20 PUSH1 0x0 KECCAK256 SWAP1 POP SWAP2 SWAP1 POP JUMP JUMPDEST PUSH1 0x0 PUSH1 0x20 PUSH1 0x1F DUP4 ADD DIV SWAP1 POP SWAP2 SWAP1 POP JUMP JUMPDEST PUSH1 0x0 DUP3 DUP3 SHL SWAP1 POP SWAP3 SWAP2 POP POP JUMP JUMPDEST PUSH1 0x0 PUSH1 0x8 DUP4 MUL PUSH2 0x1285 PUSH32 0xFFFFFFFFFFFFFFFFFFFFFFFFFFFFFFFFFFFFFFFFFFFFFFFFFFFFFFFFFFFFFFFF DUP3 PUSH2 0x1248 JUMP JUMPDEST PUSH2 0x128F DUP7 DUP4 PUSH2 0x1248 JUMP JUMPDEST SWAP6 POP DUP1 NOT DUP5 AND SWAP4 POP DUP1 DUP7 AND DUP5 OR SWAP3 POP POP POP SWAP4 SWAP3 POP POP POP JUMP JUMPDEST PUSH1 0x0 DUP2 SWAP1 POP SWAP2 SWAP1 POP JUMP JUMPDEST PUSH1 0x0 PUSH2 0x12CC PUSH2 0x12C7 PUSH2 0x12C2 DUP5 PUSH2 0xD76 JUMP JUMPDEST PUSH2 0x12A7 JUMP JUMPDEST PUSH2 0xD76 JUMP JUMPDEST SWAP1 POP SWAP2 SWAP1 POP JUMP JUMPDEST PUSH1 0x0 DUP2 SWAP1 POP SWAP2 SWAP1 POP JUMP JUMPDEST PUSH2 0x12E6 DUP4 PUSH2 0x12B1 JUMP JUMPDEST PUSH2 0x12FA PUSH2 0x12F2 DUP3 PUSH2 0x12D3 JUMP JUMPDEST DUP5 DUP5 SLOAD PUSH2 0x1255 JUMP JUMPDEST DUP3 SSTORE POP POP POP POP JUMP JUMPDEST PUSH1 0x0 SWAP1 JUMP JUMPDEST PUSH2 0x130F PUSH2 0x1302 JUMP JUMPDEST PUSH2 0x131A DUP2 DUP5 DUP5 PUSH2 0x12DD JUMP JUMPDEST POP POP POP JUMP JUMPDEST JUMPDEST DUP2 DUP2 LT ISZERO PUSH2 0x133E JUMPI PUSH2 0x1333 PUSH1 0x0 DUP3 PUSH2 0x1307 JUMP JUMPDEST PUSH1 0x1 DUP2 ADD SWAP1 POP PUSH2 0x1320 JUMP JUMPDEST POP POP JUMP JUMPDEST PUSH1 0x1F DUP3 GT ISZERO PUSH2 0x1383 JUMPI PUSH2 0x1354 DUP2 PUSH2 0x1223 JUMP JUMPDEST PUSH2 0x135D DUP5 PUSH2 0x1238 JUMP JUMPDEST DUP2 ADD PUSH1 0x20 DUP6 LT ISZERO PUSH2 0x136C JUMPI DUP2 SWAP1 POP JUMPDEST PUSH2 0x1380 PUSH2 0x1378 DUP6 PUSH2 0x1238 JUMP JUMPDEST DUP4 ADD DUP3 PUSH2 0x131F JUMP JUMPDEST POP POP JUMPDEST POP POP POP JUMP JUMPDEST PUSH1 0x0 DUP3 DUP3 SHR SWAP1 POP SWAP3 SWAP2 POP POP JUMP JUMPDEST PUSH1 0x0 PUSH2 0x13A6 PUSH1 0x0 NOT DUP5 PUSH1 0x8 MUL PUSH2 0x1388 JUMP JUMPDEST NOT DUP1 DUP4 AND SWAP2 POP POP SWAP3 SWAP2 POP POP JUMP JUMPDEST PUSH1 0x0 PUSH2 0x13BF DUP4 DUP4 PUSH2 0x1395 JUMP JUMPDEST SWAP2 POP DUP3 PUSH1 0x2 MUL DUP3 OR SWAP1 POP SWAP3 SWAP2 POP POP JUMP JUMPDEST PUSH2 0x13D8 DUP3 PUSH2 0xCE6 JUMP JUMPDEST PUSH8 0xFFFFFFFFFFFFFFFF DUP2 GT ISZERO PUSH2 0x13F1 JUMPI PUSH2 0x13F0 PUSH2 0x11F4 JUMP JUMPDEST JUMPDEST PUSH2 0x13FB DUP3 SLOAD PUSH2 0x1157 JUMP JUMPDEST PUSH2 0x1406 DUP3 DUP3 DUP6 PUSH2 0x1342 JUMP JUMPDEST PUSH1 0x0 PUSH1 0x20 SWAP1 POP PUSH1 0x1F DUP4 GT PUSH1 0x1 DUP2 EQ PUSH2 0x1439 JUMPI PUSH1 0x0 DUP5 ISZERO PUSH2 0x1427 JUMPI DUP3 DUP8 ADD MLOAD SWAP1 POP JUMPDEST PUSH2 0x1431 DUP6 DUP3 PUSH2 0x13B3 JUMP JUMPDEST DUP7 SSTORE POP PUSH2 0x1499 JUMP JUMPDEST PUSH1 0x1F NOT DUP5 AND PUSH2 0x1447 DUP7 PUSH2 0x1223 JUMP JUMPDEST PUSH1 0x0 JUMPDEST DUP3 DUP2 LT ISZERO PUSH2 0x146F JUMPI DUP5 DUP10 ADD MLOAD DUP3 SSTORE PUSH1 0x1 DUP3 ADD SWAP2 POP PUSH1 0x20 DUP6 ADD SWAP5 POP PUSH1 0x20 DUP2 ADD SWAP1 POP PUSH2 0x144A JUMP JUMPDEST DUP7 DUP4 LT ISZERO PUSH2 0x148C JUMPI DUP5 DUP10 ADD MLOAD PUSH2 0x1488 PUSH1 0x1F DUP10 AND DUP3 PUSH2 0x1395 JUMP JUMPDEST DUP4 SSTORE POP JUMPDEST PUSH1 0x1 PUSH1 0x2 DUP9 MUL ADD DUP9 SSTORE POP POP POP JUMPDEST POP POP POP POP POP POP JUMP JUMPDEST DUP3 DUP2 DUP4 CALLDATACOPY PUSH1 0x0 DUP4 DUP4 ADD MSTORE POP POP POP JUMP JUMPDEST PUSH1 0x0 PUSH2 0x14BC DUP4 DUP6 PUSH2 0xCF1 JUMP JUMPDEST SWAP4 POP PUSH2 0x14C9 DUP4 DUP6 DUP5 PUSH2 0x14A1 JUMP JUMPDEST PUSH2 0x14D2 DUP4 PUSH2 0xD2C JUMP JUMPDEST DUP5 ADD SWAP1 POP SWAP4 SWAP3 POP POP POP JUMP JUMPDEST PUSH1 0x0 PUSH1 0x40 DUP3 ADD SWAP1 POP DUP2 DUP2 SUB PUSH1 0x0 DUP4 ADD MSTORE PUSH2 0x14F8 DUP2 DUP7 DUP9 PUSH2 0x14B0 JUMP JUMPDEST SWAP1 POP DUP2 DUP2 SUB PUSH1 0x20 DUP4 ADD MSTORE PUSH2 0x150D DUP2 DUP5 DUP7 PUSH2 0x14B0 JUMP JUMPDEST SWAP1 POP SWAP6 SWAP5 POP POP POP POP POP JUMP INVALID LOG2 PUSH5 0x6970667358 0x22 SLT KECCAK256 0xDC ADDMOD PUSH13 0x92EF5BE232EDBCE9A490EA2D8E 0xB2 SMOD 0xBF PUSH5 0xB6F056E899 SMOD SWAP3 0xC4 CALLDATACOPY SUB 0x27 BALANCE PUSH5 0x736F6C6343 STOP ADDMOD SHR STOP CALLER "},"methodIdentifiers":{"addDocument(bytes32,string,string,string,string,string)":"4fe94f59","documents(bytes32)":"2b2805db","getDocument(bytes32)":"b10d6b41","owner()":"8da5cb5b","renounceOwnership()":"715018a6","transferOwnership(address)":"f2fde38b"}}}}}